:020000040800F2
:1000000038DF0120AD010008CD340008F7330008C7
:10001000C934000899080008554C00080000000089
:10002000000000000000000000000000654500081E
:10003000FB10000800000000DD380008254800081B
:10004000C7010008C7010008C7010008C701000870
:10005000C7010008C7010008C7010008C701000860
:10006000C7010008C7010008C7010008C701000850
:10007000C7010008C7010008C7010008C701000840
:10008000C7010008C7010008C7010008C701000830
:100090009D0800087D090008C7010008C701000885
:1000A000C7010008C7010008C7010008C701000810
:1000B00051490008C7010008C7010008C70100082E
:1000C000C7010008C7010008C7010008C7010008F0
:1000D000C7010008C7010008C54B0008F54B000820
:1000E000FD100008C7010008C7010008C70100088B
:1000F000C7010008C7010008C7010008C7010008C0
:10010000C7010008C7010008C7010008C7010008AF
:10011000714A0008C7010008C7010008C7010008AC
:10012000C7010008C7010008C7010008C70100088F
:10013000C7010008C7010008C7010008C70100087F
:10014000610A0008410B0008C7010008C701000848
:10015000C7010008C7010008C7010008254C0008B6
:10016000C7010008C7010008C7010008C70100084F
:10017000C7010008C7010008C7010008000000000F
:10018000C7010008C7010008DFF80CD000F0D8FA5A
:1001900000480047817D000838DF012030BF72B67B
:1001A000704762B6704780F30888704706488047FA
:1001B00006480047FEE7FEE7FEE7FEE7FEE7FEE74C
:1001C000FEE7FEE7FEE7FEE7ED48000889010008CC
:1001D0002DE9F05F0546002092469B46884606467C
:1001E000814640241BE0284641464746224600F00F
:1001F000A7F853465A46C01A914110D311461846E3
:10020000224600F08EF82D1A67EB01084F46224671
:100210000120002100F085F817EB00094E41201E57
:10022000A4F10104DFDC484631462A464346BDE8D6
:10023000F09F40EA01039B0703D009E008C9121FA1
:1002400008C0042AFAD203E011F8013B00F8013B90
:10025000521EF9D27047D2B201E000F8012B491EBC
:10026000FBD270470022F6E710B513460A46044653
:100270001946FFF7F0FF204610BD421E12F8013F5D
:10028000002BFBD111F8013B02F8013B002BF9D107
:100290007047034611F8012B00F8012B002AF9D111
:1002A00018467047F0B4CA17CB0F50405140C618DB
:1002B00041F100054FEAC372314628004FF0960322
:1002C00003D0B623F0BC00F054B830460021F9E763
:1002D00000F0004230F000400AD0C10D01F560711D
:1002E000C0F3160042EA0151C208400711437047AB
:1002F00000200146704730B50B4601460020202201
:10030000012409E021FA02F59D4205D303FA02F522
:10031000491B04FA02F52844151EA2F10102F1DC82
:1003200030BD202A04DB203A00FA02F10020704799
:100330009140C2F1200320FA03F319439040704723
:10034000202A04DB203A21FA02F00021704721FA2A
:1003500002F3D040C2F12002914008431946704791
:100360000029A8BF7047401C490008BF20F00100C9
:10037000704710B4B0FA80FC00FA0CF050EA0104A7
:1003800004BF10BC704749B1CCF1200421FA04F439
:1003900011FA0CF118BF012121430843A3EB0C0112
:1003A000CB1D4FEA00614FEA102042BF002010BC75
:1003B000704700EBC35010440029A4BF10BC704725
:1003C000401C490008BF20F0010010BC70472DE917
:1003D000FE4F804681EA0300C00F0C46009021F0DA
:1003E000004123F00045B8EB0200A94105D2404688
:1003F000214690461C460B46024623F0004010431F
:1004000047D0270DC7F30A00C3F30A510290401AE0
:10041000019040286BDAC3F3130040F4801B00986E
:10042000924620B10023D2EB030A63EB0B0B019839
:100430005946C0F140025046FFF773FF06460D468D
:1004400050465946019A00F08DF910EB08006141C1
:10045000002487EA115284EAE7731A4340D0009AD5
:1004600062B3019A012A4FEA075215DC001B61EBC7
:1004700002014FF0004202EA0752CDE90042001C9F
:1004800041F5801132462B4600F08DF903B0BDE8EE
:10049000F08F40462146F9E7001B61EB0201001C8A
:1004A00041F5801300185B412018A2F5001747EBB7
:1004B000030140EAD570B6196D4111E06D084FEAAD
:1004C000360645EAC0754FEA0752001B61EB020190
:1004D000001C41F5801149084FEA300000195141D4
:1004E00032462B4603B0BDE8F04F00F04DB90098FE
:1004F000012240000023D0EB020263EBE07300987E
:1005000021464FEAE074B8EB000061EB0401E9E733
:1005100083F000435BE781F0004158E72DE9FE4F8F
:1005200081EA030404F0004421F0004100944FF0FC
:10053000000B23F0004350EA01045ED052EA0304AA
:100540005BD0C3F30A54C1F30A552C44A4F2F3342C
:100550000194A0FB0254C1F3130141F48011C3F3D1
:10056000130343F4801301FB024400FB034E840A8F
:10057000970A44EA815447EA8357A4FB0768029527
:100580008D0A05FB07854FEA932C04FB0C542705C5
:10059000029D4FEA065847EA1637B5EB08056EEBA1
:1005A000070C870E920E47EA811742EA8312A7FBD7
:1005B0000201B6EB0B0164EB00042B0D43EA0C3394
:1005C0005E1844EB1C50DA465146E7FB0201C5F3C6
:1005D00013044FEA0B3343EA14534FEA0432019CED
:1005E00043EA0603A4F10C040294009CCDE900B494
:1005F00000F0D9F803B0BDE8F08F00200146F9E71C
:100600002DE9F04D81EA030404F0004B21F0004590
:1006100014464FF0000A23F0004150EA050220D0B2
:1006200054EA01021DD0C5F30A570246C5F313036D
:10063000C1F31300C1F30A5640F4801543F480134C
:10064000A7EB0608101BD64608F2FD3873EB050031
:1006500002D308F1010801E092185B41B8F1000FE4
:1006600003DA00200146BDE8F08D00204FF4801130
:10067000064684460EE0171B73EB050705D3121BD5
:1006800063EB050306434CEA010C49084FEA3000CE
:1006900092185B4150EA0107EDD152EA030012D0F3
:1006A00082EA040083EA0501084305D0101BAB4130
:1006B00006D20122002306E000224FF0004302E0B0
:1006C0006FF0010253101AEB06004CEB085110EBCF
:1006D0000A0041EB0B01BDE8F04D00F055B8C1F345
:1006E0000A52C1F3130140F2FF3341F480119A42E0
:1006F00002DA00200146704740F233439A42A2F2E8
:10070000334202DC5242FFF71BBEFFF70ABE000075
:1007100030B5041E71F1000404DB4FF00044404288
:1007200064EB0101141E73F1000405DB1C464FF05D
:100730000043524263EB0403994208BF904230BD2C
:10074000064C074D06E0E06840F0010394E807001E
:1007500098471034AC42F6D3FFF71AFDA0310308D6
:10076000C0310308202A06DBCB17203A41FA02F0F9
:1007700043EAE07306E041FA02F3D040C2F12002FE
:10078000914008431946704710B5141E73F10004D8
:1007900008DA401C41F1000192185B411A4301D173
:1007A00020F0010010BD2DE9F04D92469B4611B19D
:1007B000B1FA81F202E0B0FA80F220329046FFF7FF
:1007C000B0FD04460F4640EA0A0041EA0B015346D9
:1007D0005A46084313D0114653EA010019D0C8F114
:1007E00040025046FFF7ACFD05460E4650465946BE
:1007F0004246FFF796FD084305D0012004E020465D
:100800003946BDE8F08D0020054346EAE0762C43EA
:1008100037430A986305E40AA0EB08000022FD0AAA
:1008200044EA47540A3002D500200146E9E70105B1
:1008300010196941DDE9084500196941BDE8F04D2D
:10084000A2E770B58C1810F8015B15F0070301D111
:1008500010F8013B2A1106D110F8012B03E010F823
:10086000016B01F8016B5B1EF9D12B0705D4002346
:10087000521E0DD401F8013BFAE710F8013BCB1AE8
:10088000921C03E013F8015B01F8015B521EF9D5DD
:10089000A142D8D3002070BD00BFFEE710B50022F2
:1008A0001146314800F0DCFE30480068304931F82C
:1008B000100030490978884255DA2C4800682C49E4
:1008C00031F8100000EB80002B4901EB8000007A2A
:1008D00026490969884246D124480068244931F8EC
:1008E000100000EB8000244911F82000D8BB1F48FD
:1008F00000681F4931F8100000EB80001E4901EB31
:100900008000007C01282ED118480068184931F871
:10091000100000EB8000184901EB8000407C10BB08
:10092000002410E011481430005D10490968104A95
:1009300032F8111001EB81010F4A02EB8101496885
:100940000855601CC4B209480069A042EAD80749AA
:100950000968074A32F8111001EB8101064A02EBDF
:100960008101C868804710BDAC0B0020080C002036
:100970007402002068000020BC00002010B5002296
:100980000121324800F06CFE31480068314931F8ED
:10099000100031490978884256DA2D4800682D49FF
:1009A00031F8100000EB80002C4901EB8000007A48
:1009B00027490969884247D125480068254931F807
:1009C000100000EB8000254911F82000E0BB204812
:1009D0000068204931F8100000EB80001F4901EB4E
:1009E0008000007C01282FD119480068194931F88E
:1009F000100000EB8000194901EB8000407C0128C9
:100A000022D1002410E012481430005D104909681A
:100A1000104A32F8111001EB8101104A02EB8101FA
:100A200049680855601CC4B209480069A042EAD868
:100A300007490968074A32F8111001EB8101074A9A
:100A400002EB8101C868804710BD0000AC0B00209C
:100A5000080C00207402002068000020BC00002068
:100A600010B500221146314800F0FAFD3048006808
:100A7000304931F8100030490978884255DA2C485D
:100A800000682C4931F8100000EB80002B4901EB85
:100A90008000007A26490969884246D124480068C6
:100AA000244931F8100000EB8000244911F820009F
:100AB000D8BB1F4800681F4931F8100000EB8000C8
:100AC0001E4901EB8000007C02282ED118480068E6
:100AD000184931F8100000EB8000184901EB800044
:100AE000407C10BB002410E011481430005D104918
:100AF0000968104A32F8111001EB81010F4A02EB2C
:100B0000810149680855601CC4B209480069A042C7
:100B1000EAD807490968074A32F8111001EB810148
:100B2000064A02EB8101C868804710BD2C0C0020EA
:100B3000880C00207402002068000020BC00002007
:100B400010B500220121324800F08AFD31480068CA
:100B5000314931F8100031490978884256DA2D4878
:100B600000682D4931F8100000EB80002C4901EBA2
:100B70008000007A27490969884247D125480068E2
:100B8000254931F8100000EB8000254911F82000BC
:100B9000E0BB20480068204931F8100000EB8000DD
:100BA0001F4901EB8000007C02282FD11948006802
:100BB000194931F8100000EB8000194901EB800061
:100BC000407C012822D1002410E012481430005D3E
:100BD00010490968104A32F8111001EB8101104ADE
:100BE00002EB810149680855601CC4B209480069DC
:100BF000A042EAD807490968074A32F8111001EB08
:100C00008101074A02EB8101C868804710BD0000DE
:100C10002C0C0020880C00207402002068000020AA
:100C2000BC0000202DE9F047ADF5047D0024A1466D
:100C30004FF00E0A002500260027A046702154A878
:100C4000FFF710FB702138A8FFF70CFB70211CA8E0
:100C5000FFF708FB70216846FFF704FB02F0CEFBAC
:100C6000F648F7490860F7480863F74848630620E4
:100C700048600021F24881604FF08071C160C91165
:100C800001610901416100218161C161016241622B
:100C900081620121C16200F01DFB20B101200DF530
:100CA000047DBDE8F087E948E9490860E948086340
:100CB000E9484863062048600021E54881604FF01C
:100CC0008071C160C9110161090141610021816127
:100CD000C1610162416281620121C16200F0FAFAE0
:100CE00008B10220DBE7002464E004EB8400DB4968
:100CF00011F8200000285BD104EB840001EB800098
:100D0000007C012826D104EB840001EB8000407CAC
:100D100078B904EB840001EB800040884FF6FF7146
:100D200001EA40122846691CCDB254A921F81020CE
:100D30003EE004EB8400C94901EB800040884FF697
:100D4000FF7101EA40123046711CCEB238A921F879
:100D500010202DE004EB8400C04901EB8000007CF2
:100D6000022825D104EB840001EB8000407C78B997
:100D700004EB840001EB800040884FF6FF7101EA2C
:100D800040123846791CCFB21CA921F810200FE080
:100D900004EB8400B14901EB800040884FF6FF71FD
:100DA00001EA40124046411C01F0FF082DF81020D6
:100DB000601CC4B2AA480078844296DB002409E093
:100DC000681E54A931F81000291954AA22F81100FC
:100DD000601CC4B2681EC11700EB91718910A0EBB2
:100DE0008101C1F10301A142EADC002409E0701E87
:100DF00038A931F81000311938AA22F81100601C06
:100E0000C4B2701EC11700EB91718910A0EB810173
:100E1000C1F10301A142EADC002409E0781E1CA90B
:100E200031F8100039191CAA22F81100601CC4B254
:100E3000781EC11700EB91718910A0EB8101C1F1FF
:100E40000301A142EADC002409E0A8F101003DF819
:100E5000100008EB04012DF81100601CC4B2A8F1C9
:100E60000100C11700EB91718910A0EB8101C1F164
:100E70000301A142E9DC002D35DD00242CE0A000B7
:100E800054A931F810007A90A000401C31F81000ED
:100E90007B90A000801C31F810007C90A000C01C4A
:100EA00031F810007D9000207E9009F10100CDF80E
:100EB000FC9100F0FF09012080900020819001202A
:100EC00082900E2083907AA95D4800F06DF908B1F8
:100ED0000320E4E6601CC4B2681EC11700EB9171E8
:100EE000B4EBA10FCBDD002E35DD00242CE0A000FB
:100EF00038A931F810007A90A000401C31F8100099
:100F00007B90A000801C31F810007C90A000C01CD9
:100F100031F810007D9001207E9009F10100CDF89C
:100F2000FC9100F0FF0901208090002081900120B9
:100F300082900E2083907AA9414800F035F908B1DB
:100F40000420ACE6601CC4B2701EC11700EB9171A6
:100F5000B4EBA10FCBDD002F35DD00242CE0A00089
:100F60001CA931F810007090A000401C31F810004E
:100F70007190A000801C31F810007290A000C01C7D
:100F800031F810007390002074900AF10100CDF840
:100F9000D4A100F0FF0A0120769000207790012074
:100FA00078900E20799070A9294800F0FDF808B1DA
:100FB000052074E6601CC4B2781EC11700EB917165
:100FC000B4EBA10FCBDDB8F1000F35DD00242BE031
:100FD000A0003DF810007090A000401C3DF81000EB
:100FE0007190A000801C3DF810007290A000C01C01
:100FF0003DF810007390012074900AF10100CDF8C3
:10100000D4A100F0FF0A0120769000207790012003
:1010100078900E20799070A90D4800F0C5F808B1BD
:1010200006203CE6601CC4B2A8F10100C11700EB29
:101030009171B4EBA10FCBDD002030E600640040DD
:10104000AC0B0020EC0B0020080C002000680040D6
:101050002C0C00206C0C0020880C0020BC00002010
:10106000680000207CB501200F4908700F484FF43C
:101070007A73002406C8A1FB030502FB035201FB9F
:1010800004234FF08041496A22460446611843EB2D
:101090000200CDE90010064806A20F4903680FA020
:1010A00005F05EFF7CBD0000460A0020180000200D
:1010B0009C000020434F5645525F48616E646C654A
:1010C0007209097370643A25642020202074696DC8
:1010D000653A2564200D0A00C8D80120665F6D7945
:1010E000746573742E7478740000000010B50446A3
:1010F0001E21204600F09CFB10BD704710B54FF438
:10110000006000F0E5FC10BD30B587B01348006802
:10111000C117134A03C211484068124908601249B6
:1011200003C94FF47A740022A0FB043501FB04517B
:1011300000FB0210E106496A59185041CDE904103C
:10114000084800680290064803C808A2CDE90001DB
:10115000104911A005F004FF07B030BD9000002039
:1011600010D3012000D30120180000204752414233
:101170005F48616E646C657209096C6F633A25643F
:10118000097370643A25642074696D653A2564209A
:101190000D0A0000C8D80120665F6D79746573740C
:1011A0002E7478740000000030B5034600220C7DD8
:1011B000012000FA04F24648006840F00100444C67
:1011C00020602046006820F47C50206020460068A3
:1011D0004C6A40EA04203E4C20603D481C300068C8
:1011E00090433B4C1C342060C869D8B938480C3057
:1011F00000689043364C0C342060888880B28C891B
:1012000040EA0444324840304D6940F8354008888F
:1012100080B20C8940EA04442D4840304D6900EB0F
:10122000C5004460C86901281BD129480C300068FA
:101230001043274C0C342060888880B20C8840EA28
:101240000444234840304D6940F83540888980B2D5
:101250000C8940EA04441E4840304D6900EBC5004B
:101260004460886938B91A48001D00689043184CDA
:10127000241D206006E01648001D00681043144C31
:10128000241D2060086930B911481430006890436B
:101290000F4C143420600869012806D10C48143022
:1012A000006810430A4C14342060086A012806D1F3
:1012B00007481C3000681043054C1C34206004486B
:1012C000006820F00100024C2060002030BD0000CA
:1012D0000066004070B50446032600250CB90120C5
:1012E00070BD94F8380028B9002084F839002046F1
:1012F00000F0D0F8022084F838002068006820F060
:101300000200216808602068006840F00100216840
:10131000086000F0F1FC05460EE000F0EDFC401B1B
:101320000A2809D9032084F8380000BF002084F877
:10133000390000BF0320D3E72068406800F00100B7
:101340000028EAD02068406800F0010008B90026B3
:1013500092E0A069012806D12068006840F0800072
:101360002168086005E02068006820F0800021689E
:101370000860E069012806D12068006840F040005C
:101380002168086005E02068006820F040002168BE
:101390000860206A012806D12068006840F020001B
:1013A0002168086005E02068006820F020002168BE
:1013B0000860606A012806D12068006840F01000CB
:1013C0002168086005E02068006820F010002168AE
:1013D0000860A06A012806D12068006840F0080073
:1013E0002168086005E02068006820F00800216896
:1013F0000860E06A012806D12068006840F0040017
:101400002168086005E02068006820F00400216879
:101410000860D4E90201084321690843616908436F
:101420006168491E08432168C8612068006820F08F
:1014300001002168086000F05FFC05460EE000F046
:101440005BFC401B0A2809D9032084F8380000BF40
:10145000002084F8390000BF032041E7206840687D
:1014600000F001000028EAD12068406800F0010087
:1014700008B1002600E00126012E06D10020E0631D
:10148000012084F8380000202AE7042084F838007E
:10149000012025E710B586B004466D48844268D126
:1014A00000BF002000906B48006840F00070694960
:1014B00008600846006800F00070009000BF00BFA0
:1014C00000BF0020009063481038006840F0020020
:1014D0006049103908600846006800F0020000907A
:1014E00000BF00BF881501900220029001200390E8
:1014F000022004900920059001A9574800F0F6FA4F
:1015000000BF0020009053481038006840F00200EF
:101510005049103908600846006800F00200009049
:1015200000BF00BF4815019001A94B4800F0DEFA4A
:1015300047480068406940F0020045490968486131
:1015400000220221142000F023FC142000F013FCE0
:101550003F480068406940F010003D490968486113
:1015600001220221152000F013FC152000F003FCDD
:101570006BE03A48844268D100BF002000903548B3
:10158000006840F08060334908600846006800F059
:101590008060009000BF00BF00BF002000902D4879
:1015A0001038006840F002002A49103908600846E7
:1015B000006800F00200009000BF00BF8814019096
:1015C000022002900120039002200490092005903F
:1015D00001A9214800F08AFA00BF002000901D48B0
:1015E0001038006840F002001A49103908600846B7
:1015F000006800F00200009000BF00BF4FF40050F0
:10160000019001A9144800F071FA1448006840697B
:1016100040F0020011490968486102221146402049
:1016200000F0B6FB402000F0A6FB0C4800684069C3
:1016300040F0100009490968486103220221412055
:1016400000F0A6FB412000F096FB06B010BD0000A4
:10165000AC0B002040380240000402402C0C00205B
:101660002DE9F04104460D461646002700BF94F8C8
:101670003900012802D10220BDE8F081012084F860
:10168000390000BF94F83800122803D1322084F8C2
:10169000380002E0222084F8380000F02DFB0746D5
:1016A00011E0701C78B126B100F026FBC01BB042DF
:1016B00009D9032084F8380000BF002084F83900DD
:1016C00000BF0320D8E725B92068C06800F00300F8
:1016D00003E02068006900F003000028E1D02068E2
:1016E00000F5D87000EB0510006800F00400616B95
:1016F0008860606B806860B9206800F5D87000EB86
:101700000510006840F2FF7101EA5050616B0860FB
:101710000BE0206800F5D87000EB051000686FF052
:10172000604101EAD000616B4860206800F5D87024
:1017300000EB0510006800F00200616BC8602068D3
:1017400000F5D87000EB0510406800F00F00616BE9
:101750000861206800F5D87000EB05104068C0F300
:101760000720616BC861206800F5D87000EB051098
:101770008068616B0875206800F5D87000EB051073
:101780008068010A606B4175206800F5D87000EB35
:1017900005108068010C606B8175206800F5D870B9
:1017A00000EB05108068000E616BC875206800F5BD
:1017B000D87000EB0510C068C1B2606B017620687C
:1017C00000F5D87000EB0510C068010A606B417627
:1017D000206800F5D87000EB0510C068010C606B44
:1017E0008176206800F5D87000EB0510C068000E07
:1017F000616BC8761DB920202168C86002E02020F6
:101800002168086194F83800322807D1122084F842
:10181000380000BF002084F8390007E0012084F878
:10182000380000BF002084F8390000BF002023E703
:101830002DE9F04104460E460525002700BF94F827
:101840003900012802D10220BDE8F081012084F88E
:10185000390000BF94F83800222803D1322084F8E0
:10186000380002E0122084F838002068806800F018
:101870008060B0F1806F01D1002512E0206880689F
:1018800000F00060B0F1006F01D1012509E020688F
:10189000806800F08050B0F1805F01D1022500E047
:1018A0000425042D7ED0206800F5C07000EB0510E3
:1018B000006800F00101206800F5C07000EB051021
:1018C0000160206B806898B9206800F5C07000EB5B
:1018D00005100068216BC968226B128841EA4251E9
:1018E0000843216801F5C07101EB0511086015E09E
:1018F000206800F5C07000EB05100068216B896856
:10190000226B526841EAC201226BD268114308433C
:10191000216801F5C07101EB05110860206B007CA6
:1019200000F00F00216B0861206800F5C07000EB2B
:101930000510406820F00F01206800F5C07000EB32
:1019400005104160206800F5C07000EB051040688C
:10195000216B09690843216801F5C07101EB05118C
:101960004860206BC07D0106206B807D41EA00410C
:10197000206B407D41EA0021206B007D01432068FF
:1019800000F5C07000EB05108160206BC07E010681
:10199000206B807E41EA0041206B407E41EA0020BE
:1019A000216B00E063E0097E0843216801F5C07106
:1019B00001EB0511C860206800F5C07000EB051050
:1019C000006840F00101206800F5C07000EB0510D0
:1019D000016000F091F9074611E0701C78B126B162
:1019E00000F08AF9C01BB04209D9032084F83800FE
:1019F00000BF002084F8390000BF032024E74DB960
:101A0000206880681F490840884201D1012016E003
:101A1000002014E0012D09D1206880681A4908408F
:101A2000884201D101200AE0002008E02068806897
:101A300016490840884201D1012000E0002000281A
:101A4000CBD094F83800322807D1222084F838000F
:101A500000BF002084F8390007E0012084F8380036
:101A600000BF002084F8390000BF0020ECE604200D
:101A700084F8380000BF002084F8390000BF01203E
:101A8000E2E6000003000004000300080000031069
:101A900031B5002400F030F9044600BF00F02CF905
:101AA000001B00998842F9D338BD0000B0F5006FE3
:101AB00006D10021044B9960044AD960516000BFEF
:101AC00000BF00BF7047000010D3012000D30120E9
:101AD00010B5044604480068204020B10248046064
:101AE0002046FFF7E3FF10BD143C0140F8B5024665
:101AF0000B460025002400200021E1E0012606FA23
:101B000001F51E6806EA0504AC4273D15E68022E38
:101B100002D05E68122E13D1CF0802F1200656F8CB
:101B200027004E07F70E0F26BE40B0434F07FF0EAB
:101B30001E69BE403043CF0802F1200646F8270058
:101B400010684F000326BE40B0431E7906F003061E
:101B50004F00BE40304310605E68012E08D05E68C2
:101B6000022E05D05E68112E02D05E68122E13D1AF
:101B700090684F000326BE40B0434F00DE68BE4071
:101B800030439060506801268E40B0431E79C6F302
:101B900000168E4030435060D0684F000326BE4090
:101BA000B0434F009E68BE403043D0605E6806F090
:101BB0008056B6F1805FA8D100BF00260096424E45
:101BC000366846F48046404F3E603E46366806F42E
:101BD0008046009600BF00BF3C4E8F0856F8270095
:101BE0008E07370F0F26BE40B043394EB24202D1A6
:101BF000002629E063E0374EB24201D1012623E0FE
:101C0000354EB24201D102261EE0344EB24201D11D
:101C1000032619E0324EB24201D1042614E0314EBF
:101C2000B24201D105260FE02F4EB24201D1062665
:101C30000AE02E4EB24201D1072605E02C4EB242F8
:101C400001D1082600E009268F073F0FBE40304330
:101C50001E4E8F0846F82700264E3068A0435E6867
:101C600006F48036B6F5803F00D12043214E306027
:101C7000361D3068A0435E6806F40036B6F5003FB6
:101C800000D120431B4E361D3060361D3068A04306
:101C90005E6806F48016B6F5801F00D12043154E0D
:101CA00008363060361D3068A0435E6806F40016C2
:101CB000B6F5001F00D120430E4E0C363060491C93
:101CC0001029FFF41BAFF8BD44380240083801402A
:101CD000000002400004024000080240000C0240E4
:101CE000001002400014024000180240001C024094
:101CF00000200240003C014001480068704700009D
:101D0000680A002002480068401C014908607047CA
:101D1000680A002010B50D48006840F400700B49B7
:101D200008600846006840F4806008600846006863
:101D300040F480700860052000F068F80F2000F083
:101D400007F800F017F8002010BD0000003C02402A
:101D500070B5044600F0C6F94FF47A71B0FBF1F5A6
:101D6000284601F00AF900222146501E00F010F822
:101D7000002070BD704700BF00F01F02012191409C
:101D80004209920002F1E022C2F8001100BF704740
:101D90002DE9F05F80460D461646002701F098FBBE
:101DA000074639462A46334601F00700C0F1070AC4
:101DB000BAF1040F02D94FF0040A01E0C0F1070A9A
:101DC000D14600F1040ABAF1070F02D24FF0000A1F
:101DD00001E0A0F1030AD4464FF0010A0AFA09FA19
:101DE000AAF1010A0AEA020A0AFA0CFA4FF0010BF8
:101DF0000BFA0CFBABF1010B0BEA030B4AEA0B04E9
:101E00002146404601F06CFBBDE8F09F00BF00F0AA
:101E10000702064B19684FF6FF031940044B0B43AA
:101E200043EA0221014B196000BF70470CED00E04E
:101E30000000FA0570B504460E460025A748006864
:101E400000F00F00B0426FD2A4490E70084600683F
:101E500000F00F00B04201D0012070BD207800F0EA
:101E60000200022807D19E48006820F0F000A16817
:101E700008439B490860207800F0010000283ED00C
:101E80006068012807D1964808380068C0F34040D0
:101E9000B8B90120E1E76068022802D06068032831
:101EA00007D18F4808380068C0F3406048B9012066
:101EB000D3E78B4808380068C0F3400008B9012018
:101EC000CBE78748006820F0030061680843844935
:101ED0000860FFF711FF05466068012810D108E08F
:101EE000FFF70AFF401B41F28831884201D90320E5
:101EF000B3E77B48006800F00C000428F0D1CDE087
:101F00006068022811D108E0FFF7F6FE401B41F29D
:101F10008831884201D903209FE77148006800F0AA
:101F20000C000828F0D1B9E024E06068032810D143
:101F300008E0FFF7E1FE401B41F28831884201D9F9
:101F400003208AE76648006800F00C000328F0D1FF
:101F5000A4E008E0FFF7D0FE401B41F28831884240
:101F600001D9032079E75E48006800F00C000028E2
:101F7000F0D193E0207800F00200022807D1584801
:101F8000006820F0F000A1680843554908602078F7
:101F900000F00100002877D06068012807D1504880
:101FA00008380068C0F34040B8B9012055E76068C0
:101FB000022802D06068032807D149480838006821
:101FC000C0F3406048B9012047E745480838006839
:101FD000C0F3400008B901203FE74148006820F005
:101FE0000300616808433E490860FFF785FE054627
:101FF0006068012810D108E0FFF77EFE401B41F227
:102000008831884201D9032027E73548006800F06D
:102010000C000428F0D137E06068022810D108E0F5
:10202000FFF76AFE401B41F28831884201D9032044
:1020300013E72B48006800F00C000828F0D123E0DB
:102040006068032810D108E0FFF756FE401B41F2FC
:102050008831884201D90320FFE62148006800F05A
:102060000C000328F0D10FE008E0FFF745FE401B0D
:1020700041F28831884201D90320EEE61848006811
:1020800000F00C000028F0D114490E7008460068DA
:1020900000F00F00B04201D00120DEE6207800F011
:1020A0000400042807D10E48006820F4E050E168DD
:1020B00008430B490860207800F00800082808D180
:1020C0000748006820F46040216940EAC1000449E3
:1020D00008600F20FFF73CFE0020BEE6003C0240F7
:1020E0000838024010B500F019F80949096801F0F4
:1020F000F001F02292FAA2F2B2FA82F2D140054A3D
:10210000515CC840044908600846006810BD0000E2
:10211000083802408E3103080000002070B500210D
:10212000002200230020274C246804F00C0424B172
:10213000042C04D0082C41D103E0234840E023487C
:102140003EE0204C241F246804F03F011D4C241F56
:10215000246804F4800484B11C4CB4FBF1F5194CE0
:10216000241F246847F6C076344096FAA6F6B6FADD
:1021700086F6F44005FB04F20FE0134CB4FBF1F5D6
:10218000104C241F246847F6C076344096FAA6F611
:10219000B6FA86F6F44005FB04F20A4C241F2468C4
:1021A00004F440344FF4403595FAA5F5B5FA85F5B9
:1021B000EC40641C6300B2FBF3F001E0024800BF96
:1021C00000BF70BD083802400024F40000127A00FD
:1021D00038B504460025207800F00100002866D0BC
:1021E000F748006800F00C0004280DD0F44800689F
:1021F00000F00C00082813D1F148001F006800F41B
:102200008000B0F5800F0BD1ED4808380068C0F3AE
:10221000404000284BD06068002848D1012038BDDC
:102220000020E749891F0870FFF766FD054608E0B2
:10223000FFF762FD401B41F28831884201D903203B
:10224000EDE7DF4808380068C0F340400028EFD1D0
:102250002079DB49891F08706068A0B1FFF74CFD49
:10226000054608E0FFF748FD401B41F288318842EF
:1022700001D90320D3E7D24808380068C0F34040B2
:102280000028EFD013E0FFF737FD054608E0FFF721
:1022900033FD401B41F28831884201D90320BEE75B
:1022A000C74808380068C0F340400028EFD12078C4
:1022B00000F00200022869D1C148006800F00C005B
:1022C00058B1BF48006800F00C00082821D1BC4874
:1022D000001F006800F48000D8B9B94808380068C9
:1022E000C0F3400020B1E068012801D0012096E74A
:1022F000B3480838006820F0F800F82292FAA2F2F9
:10230000B2FA82F2216991400843AD490839086068
:102310003CE0E06828B30120AA490860FFF7ECFC24
:10232000054606E0FFF7E8FC401B642801D90320BE
:1023300075E7A34808380068C0F340000028F1D0D2
:102340009F480838006820F0F800F82292FAA2F2BC
:10235000B2FA82F22169914008439949083908602C
:1023600014E0002097490860FFF7C6FC054606E028
:10237000FFF7C2FC401B642801D903204FE79048B7
:1023800008380068C0F340000028F1D1207800F040
:10239000080008282CD16069A8B101208A4908608A
:1023A000FFF7AAFC054606E0FFF7A6FC401B6428E1
:1023B00001D9032033E782486C300068C0F3400045
:1023C0000028F1D014E000207F490860FFF794FC5A
:1023D000054606E0FFF790FC401B642801D9032066
:1023E0001DE777486C300068C0F340000028F1D149
:1023F000207800F0040004286FD100BF0020009076
:102400006F483830006840F080506D4938310860BE
:102410000846006800F08050009000BF00BF6B4885
:10242000006840F4807069490860FFF765FC054664
:1024300006E0FFF761FC401B642801D90320EEE6AB
:102440006248006800F480700028F2D000205C49E7
:1024500068310870FFF750FC054608E0FFF74CFCB8
:10246000401B41F28831884201D90320D7E6544805
:1024700068300068C0F340000028EFD1207A50494E
:1024800068310870A068A0B1FFF736FC054608E087
:10249000FFF732FC401B41F28831884201D903200A
:1024A000BDE6474868300068C0F340000028EFD020
:1024B00013E0FFF721FC054608E0FFF71DFC401B79
:1024C00041F28831884201D90320A8E63C486830AF
:1024D0000068C0F340000028EFD1A069F0B338488D
:1024E000006800F00C00082872D0A069022850D1C2
:1024F000002034490866FFF7FFFB054606E0FFF7BA
:10250000FBFB401B642801D9032088E62C480838CF
:102510000068C0F340600028F1D1D4E90701084306
:1025200047F6C07292FAA2F2B2FA82F2616A914060
:1025300008430122A16AC2EB51014FF4403292FAE2
:10254000A2F2B2FA82F2914008434FF0706292FA1E
:10255000A2F2B2FA82F2E16A914000E03AE0084366
:102560001749091F0860012016490866FFF7C4FBD8
:10257000054606E0FFF7C0FB401B642801D9032095
:102580004DE60F4808380068C0F340600028F1D0DD
:1025900020E000200B490866FFF7AEFB054606E089
:1025A000FFF7AAFB401B642801D9032037E6044843
:1025B00008380068C0F340600028F1D10AE007E065
:1025C0000838024000004742800E47420070004039
:1025D000012024E6002022E62DE9F04103460020F8
:1025E000002293F8204081F856409C8CA1F854407A
:1025F0009C6A220E94090C70C2F383044C7002F0A2
:1026000003048C709C6AC4F30742CA701C8DC4F327
:1026100007220A7193F828204A71DC6A220E4FF6CD
:10262000FF7404EA0214CC80DC6AC4F30742CC884D
:1026300044EA1214CC8002F00F040C729C8DC4F397
:102640000722D4094C72C2F380148C72C2F3401476
:10265000CC72C2F300140C7300244C731C6A14B1C6
:102660001C6A012C4DD19407240D0C612C24E25CD2
:102670000C6944EA82040C611C6B220E0C6944EA6A
:1026800092140C61C2F3C2040C7502F007044C757D
:102690001C6BC4F3074254098C75C2F38204CC75D9
:1026A0009407640F0C761C8EC4F307220C7E44EA58
:1026B000D2140C760C69641C0025C1E912450C7E0D
:1026C000D1E91267A41C012505FA04F44FEAE47C61
:1026D000A6FB045807FB048406FB0C44C1E9125412
:1026E0000D7A0124AC400C650026D1E912570C6D1F
:1026F000A5FB04C807FB048405FB0644C1E912C41A
:1027000035E01C6A022C31D12C24E25C9406A40A28
:102710000C611C6B220E0C6944EA02240C611C6BD8
:10272000C4F307420C6914430C611C8EC4F30722E6
:102730000C690025641C45EB050C4FF4007700265E
:10274000A4FB07580CFB078704FB067C4FF480674B
:102750002C466546B446A4FB076805FB078504FBC9
:102760000C54C1E912647C100C6500E02920C2F30E
:10277000801401F8194F9406640E4C703024E25C0A
:102780004C7844EAD2144C7002F07F048C705C6B7D
:10279000220ED409CC70C2F341140C71C2F382042E
:1027A0004C719407240F8C715C6BC4F307428C79D5
:1027B00044EA92148C71C2F34014CC7100240C7260
:1027C00002F001044C729C8EC4F30722D4098C726F
:1027D000C2F38014CC72C2F340140C73C2F3001421
:1027E0004C73C2F381048C7302F00304CC73342461
:1027F000E25C54080C7401244C749C6B220ECA7465
:1028000019399C6BC4F307424FF6FF7404EA0225A2
:10281000CD851C8FC4F30722CC8D1443CC8593F84F
:10282000382015060D63DC6B220E0C6B44EA024562
:102830000D63DC6BC4F307420C6B44EA02250D63A5
:102840009C8FC4F307220C6B14430C633C24E25CA2
:10285000342462541C6C220E352462541C6CC4F364
:10286000074215068D634024E45AC4F307228C6B9B
:1028700044EA02458D634024E25C8C6B44EA022505
:102880008D635C6C220E8C6B14438C635C6CC4F3A4
:1028900007423C24645C44EA12143C256C5414073F
:1028A000250DCD874424E45AC4F30722CC8F14436A
:1028B000CC874424E25C550840246554012541241A
:1028C0006554BDE8F08130B58BB004460D4600205C
:1028D0000A902077204600F045F8002004900590EB
:1028E0000690079008907620099007A807C88DE801
:1028F0000700206804A90EC901F01CF8204601F069
:102900003DFC0A909DF8280018B19DF828000BB0F6
:1029100030BD204601F0CAFA0A909DF8280010B197
:102920009DF82800F3E729462046FFF755FE0A9058
:102930009DF8280040B9B5F8540001040A46002368
:10294000204601F015FD0A90D4E90412A069CDE9F2
:102950000012029094E80F0000F0ECFF9DF82800B0
:10296000D5E7000010B586B0044600BF00200090F7
:102970002948006840F4006027490860084600685C
:1029800000F40060009000BF00BF00BF0020009076
:1029900021481438006840F480001F491439086049
:1029A0000846006800F48000009000BF00BF00BF30
:1029B000002000900846006840F0040008600846C7
:1029C000006800F00400009000BF00BF00BF0020BE
:1029D00000900846006840F008000860084600685B
:1029E00000F00800009000BF00BF4FF4F8500190C5
:1029F0000220029001200390032004900C200590F7
:102A000001A90648FFF772F80420019001A90448C3
:102A1000FFF76CF806B010BD4438024000080240D1
:102A2000000C02402DE9FF5F8CB004461746984623
:102A3000DDE91AB94FF0000A00250D9E002021683B
:102A4000C862206A022809D14FF4007B02020023E9
:102A500038464146FDF7BCFB07468846CDF81CB01A
:102A6000102008904020099000200A904FF48060C8
:102A70000B9007A9206800F080FF1021204600F08D
:102A8000B1FF8246BAF1000F03D0504610B0BDE846
:102A9000F09F4FF0FF30019009FB0BF00290902067
:102AA000039002200490002005900120069001A9C7
:102AB000206800F014FFB9F1010F02D9122008902C
:102AC00001E011200890079707A9206800F055FF42
:102AD000B9F1010F22D91221204600F083FF82466E
:102AE000BAF1000F01D05046D0E70FE02068406BEC
:102AF00000F4004050B1002505E0206800F039FFE7
:102B000046F825006D1C082DF7D320362068406B51
:102B100040F22A3108400028E8D021E01121204667
:102B200000F060FF8246BAF1000F01D05046ADE7D9
:102B30000FE02068406B00F4004050B1002505E034
:102B4000206800F016FF46F825006D1C082DF7D30D
:102B500020362068406B40F22A6108400028E8D007
:102B60002068406B00F4807070B1B9F1010F0BD98F
:102B7000206A28B1206A012802D0206A022803D1E5
:102B8000204600F047F882462068406B00F00800BD
:102B900030B10820216888634FF0040A504675E779
:102BA0002068406B00F0020028B102202168886391
:102BB000824650466AE72068406B00F0200030B142
:102BC0002020216888634FF0060A50465EE720689F
:102BD000406B00F4007038B14FF4007021688863D6
:102BE0004FF0070A504651E74FF0FF3505E02068E7
:102BF00000F0BFFE3060361D6D1E2068406B00F493
:102C0000001008B1002DF2D140F2FF502168886316
:102C100050463BE730B585B00446002500200090C3
:102C20000C20019040200290002003904FF480601F
:102C300004906946206800F0A0FE0C21204600F0B8
:102C4000D1FE0546284605B030BD70B58AB00446B1
:102C50000D460026206A032803D1272630460AB0F5
:102C600070BD206A28B1206A012802D0206A02289B
:102C700028D1B5F5805F01D127260EE0B5F5006FAC
:102C800004D1204601F0DBFB064606E025B92046CC
:102C900001F08AFB064600E026269EB96068049093
:102CA000A0680590E0680690079560690890A069A3
:102CB000099007A807C88DE80700206804A90EC975
:102CC00000F038FE3046CAE72DE9FF5F8EB00446BB
:102CD00017469846DDF874B0002002908146002522
:102CE00000260190DDF83CA000902168C862206AAF
:102CF000022809D100021C900246002338464146B2
:102D0000FDF766FA074688461C98099010200A903D
:102D100040200B9000200C904FF480600D9009A98A
:102D2000206800F02AFE1021204600F05BFE029091
:102D3000029818B1029812B0BDE8F09FBBF1010FE4
:102D400002D919200A9001E018200A90099709A9D0
:102D5000206800F012FEBBF1010F05D919212046B1
:102D600000F040FE029004E01821204600F03AFEF8
:102D70000290029808B10298DDE71C980BFB00F95D
:102D80004FF0FF3003901C980BFB00F00490902054
:102D900005900020069007900120089003A9206864
:102DA00000F09DFDBBF1010F3AD931E02068406B86
:102DB00000F4804060B3A9EB050020281BD2A9EBEA
:102DC000050000F0030018B9A9EB0500800803E036
:102DD000A9EB05008008401C0190002607E0514641
:102DE000206800F0DEFD0AF1040A2D1D761C019812
:102DF00086420DD2F3E7002605E00AEB8601206843
:102E000000F0CFFD761C082EF7D30AF1200A2035FA
:102E10002068406B40F21A3108400028C6D039E0E3
:102E200031E02068406B00F4804060B3A9EB0500FE
:102E300020281BD2A9EB050000F0030018B9A9EB6C
:102E40000500800803E0A9EB05008008401C019004
:102E5000002607E05146206800F0A3FD0AF1040AAD
:102E60002D1D761C019886420DD2F3E7002605E061
:102E70000AEB8601206800F094FD761C082EF7D33B
:102E80000AF1200A20352068406B40F21A610840A0
:102E90000028C6D02068406B00F4807070B1BBF190
:102EA000010F0BD9206A28B1206A012802D0206ABC
:102EB000022803D12046FFF7ADFE02902068406B48
:102EC00000F0080030B108202168886304200290D7
:102ED000029830E72068406B00F0020028B1022021
:102EE000216888630290029825E72068406B00F013
:102EF000100030B1102021688863052002900298EC
:102F000019E72068406B00F4007038B14FF400708E
:102F1000216888630720029002980CE740F2FF5076
:102F2000216888636946204601F03EF8029004E07B
:102F30006946204601F038F80290029838B99DF8A9
:102F400000000728F4D09DF800000628F0D0029871
:102F5000F1E6042808D14FF0E021096941F00401AD
:102F60004FF0E022116107E04FF0E021096921F004
:102F700004014FF0E0221161704770B50446254608
:102F8000681EB0F1807F01D301200FE0681E4FF072
:102F9000E02148610F214FF0FF3000F0A1FA00203E
:102FA0004FF0E021886107200861002070BD704764
:102FB000704710B504460CB9012010BD94F83900D3
:102FC00028B9002084F83800204600F00DF80220CF
:102FD00084F83900211D206801F0D8FC012084F814
:102FE00039000020E9E7000038B504462068B0F158
:102FF000804F17D100BF002000900B48006840F0C0
:103000000100094908600846006800F001000090CE
:1030100000BF00BF032211461C20FEF7B9FE1C2092
:10302000FEF7A9FE38BD000040380240014608689E
:10303000C06840F001000A68D0600868006840F08D
:1030400001000A68106000207047704710B5044600
:1030500020680069C0F34000D8B12068C068C0F3A0
:103060004000B0B16FF002002168086101202076B5
:103070002068806900F0030018B12046FFF7E5FFE3
:1030800005E0204600F0ADF8204600F0ABF8002047
:10309000207620680069C0F38000D8B12068C0683D
:1030A000C0F38000B0B16FF0040021680861022015
:1030B00020762068806900F4407018B12046FFF740
:1030C000C4FF05E0204600F08CF8204600F08AF8A6
:1030D0000020207620680069C0F3C000D8B12068C5
:1030E000C068C0F3C000B0B16FF00800216808618B
:1030F000042020762068C06900F0030018B1204643
:10310000FFF7A3FF05E0204600F06BF8204600F033
:1031100069F80020207620680069C0F30010D8B15B
:103120002068C068C0F30010B0B16FF010002168D3
:103130000861082020762068C06900F4407018B14A
:103140002046FFF782FF05E0204600F04AF82046BF
:1031500000F048F8002020762068006900F00100A7
:1031600058B12068C06800F0010030B16FF0010074
:1031700021680861204600F037F820680069C0F334
:10318000C01058B12068C068C0F3C01030B16FF0F3
:103190008000216808612046FFF709FF2068006968
:1031A000C0F3801058B12068C068C0F3801030B1FF
:1031B0006FF0400021680861204600F027F8206881
:1031C0000069C0F3401058B12068C068C0F34010D7
:1031D00030B16FF02000216808612046FFF7E8FE5B
:1031E00010BD70477047000010B50649884208D1ED
:1031F0000549D1E90041631C41F10001024AC2E9DD
:10320000003110BD700B00201800002070472DE920
:10321000F04704460D46164699464FF0000894F8CC
:103220003980B8F1010F02D0B8F1120F69D105B1A0
:1032300016B90120BDE8F08700BF94F838000128D6
:1032400001D10220F6E7012084F8380000BF0020F9
:10325000E06394F83900122803D1322084F8390051
:1032600002E0222084F83900A685E68535E0E08D6D
:10327000401EE085A068B0F5805F18D14B46002263
:103280002021204601F021FC08B10320D2E72F467F
:10329000206930B920684068C0F308003880AD1C50
:1032A0001BE020684068C0B238806D1C15E04B46BA
:1032B00000222021204601F008FC08B10320B9E7D4
:1032C000206920B92068406805F8010B05E02068F6
:1032D000406800F07F0005F8010BE08D0028C6DC97
:1032E00094F83900322803D1122084F8390002E022
:1032F000012084F8390000BF002084F8380000BFA6
:1033000098E7022096E72DE9F04704460D46164659
:1033100099464FF0000894F83980B8F1010F02D0B7
:10332000B8F1220F65D105B116B90120BDE8F087CB
:1033300000BF94F83800012801D10220F6E70120EF
:1033400084F8380000BF0020E06394F83900222898
:1033500003D1322084F8390002E0122084F83900C9
:10336000A684E68428E0E08C401EE084A068B0F5E6
:10337000805F14D14B4600228021204601F0A5FB3E
:1033800008B10320D2E72F463888C0F3080021682F
:103390004860206908B9AD1C0EE06D1C0CE04B467E
:1033A00000228021204601F090FB08B10320BDE7F8
:1033B00015F8010B21684860E08C0028D3DC4B46EF
:1033C00000224021204601F080FB08B10320ADE738
:1033D00094F83900322803D1222084F8390002E021
:1033E000012084F8390000BF002084F8380000BFB5
:1033F0009CE702209AE700BFFEE7000016210E4A74
:103400001170002005E040F2E7310C4A22F810105C
:10341000401CFF28F7DD002009E000EB8002084B8C
:1034200003EB82025288054B23F81200401C02492C
:1034300009788842F1DB70476800002074020020A0
:10344000BC00002000B587B000BF002001901B48E1
:10345000006840F48070194908600846006800F46C
:103460008070019000BF00BFC02002900120039037
:10347000002004900320059002A91148FEF736FBB6
:1034800000BF002001900D48006840F010000B497B
:1034900008600846006800F01000019000BF00BFFF
:1034A0001420029001200390002004900320059036
:1034B00002A90448FEF71AFB07B000BD30380240ED
:1034C000002002400010024000BFFEE770470000ED
:1034D00002480068C0F30220704700000CED00E0D5
:1034E00010B5002807DA0A07140E054A00F00F038A
:1034F0001B1FD45403E00A07130E024A135410BDD5
:1035000018ED00E000E400E0704710B5002000F086
:1035100081F810BD10B5012000F07CF810BD00B599
:103520000146F0EE401AB0EE602AC1ED081A81EDB6
:10353000052A32EE610A81ED0B0A91ED0B0AD1EDFD
:103540000A0A30EE600AD1ED000A20EE200A81ED71
:103550000C0A91ED010AD1ED0B0A20EE200A81ED53
:103560000D0A91ED0B0AD1ED0A0AB0EE001A01EE38
:10357000600AD1ED090A30EE200AD1ED020A20EEF0
:10358000200A81ED0E0AD1ED180AF8EE600AB0EEBD
:10359000600A01F1340002F037FA91ED0C0AD1ED26
:1035A0000D0A30EE200AD1ED0E0A30EE200A81ED30
:1035B000110A91ED130AD1ED110A30EE200A81EDC6
:1035C000120AD1ED170AF8EE600AB0EE600A01F1B6
:1035D000480002F019FA91ED120A81ED130A91EDFB
:1035E0000A0A81ED090A91ED0B0A81ED0A0A91EDB3
:1035F000070A81ED060A91ED080A81ED070A91EDAF
:10360000040A81ED030A91ED050A81ED040A91EDAA
:10361000120A00BD70B52DED028B0446204604F061
:1036200025FBC4EBC401694A02EBC10004F068FB4E
:10363000674850F8240078BB664951F8241001EE21
:10364000101AB8EEC11AF0EE410AC4EBC4015F4A89
:1036500032F9311001EE101AB8EEC11AB0EE410A7B
:1036600004EBC40101EB41015B4A02EB8100FFF76F
:1036700056FF002C1DD1C4EBC400544901EBC0001F
:103680008169564850F83400081A5549086008689E
:10369000002802DB014601E011E04142B1F57A7FEA
:1036A00008DC01204A4941F824000020494941F83A
:1036B000240065E00020464941F8240060E04448C9
:1036C00050F8240001285BD1C4B9C4EBC4003F49C1
:1036D00001EBC0008069414951F83410401A40495B
:1036E00008600868002801DB014600E04142B1F5AE
:1036F0007A7F03DB0020364941F82400374800EB8D
:10370000C400D0E900211046FCF7CCFD08EE100AF9
:10371000C4EBC4002D4901EBC000D0E906211046DE
:10372000FCF7C0FD08EE900A04EBC40101EB410177
:103730002C4A02EB8100F0EE480AB0EE680AFFF76F
:10374000EEFE04EBC40101EB4101264A02EB8101CC
:1037500091ED121AF0EE410AC4EBC4011B4A32F992
:10376000311001EE101AB8EEC11AB0EE410A04EBA6
:10377000C40101EB4101184A02EB8100FFF7CFFEC3
:10378000154D95ED630ABDEEC00A10EE105A2BB22E
:10379000114D95ED480ABDEEC00A10EE105A2AB23E
:1037A0000D4D95ED2D0ABDEEC00A10EE105A29B24E
:1037B000094D95ED120ABDEEC00A10EE105A28B25E
:1037C00004F06EFDBDEC028B70BD000020D2012024
:1037D0005000002000D3012030D3012010D301205D
:1037E00064000020E0D4012010B59FED231AF7EE0D
:1037F0000C0A9FED220A44F620631A460421204851
:1038000000F048F89FED1C1ADFED1B0A9FED1D0A22
:103810004FF416531A4604211B4800F03BF89FED65
:10382000161AF7EE0C0A9FED150A4FF4FA531A46D2
:10383000042113486C3000F02DF89FED0F1ADFEDD6
:103840000E0A9FED100A4FF416531A4604210E4833
:103850006C3000F01FF800200AE000210B4B03EB56
:10386000C00319600A4A596042F82010411CC8B2CE
:103870000228F2DB10BD0000000000000000AC4197
:1038800030D301200AD7A33DE0D4012010D301207A
:1038900000D301202DE9F0412DED048B04460D46A7
:1038A00016461F46B0EE408AF0EE608AB0EE419AAE
:1038B00009486066B0EE491AF0EE680AB0EE480AB0
:1038C0003B46324629462046D4F864C0E047BDEC6A
:1038D000048BBDE8F0810000A5800008704710B59A
:1038E000024600230868506248689062D1E90204E9
:1038F00020430C6920434C6920430343D06A20F0E5
:10390000F7001843D062002010BD01460869C0B21C
:1039100070470146086800F00300704708B501468B
:10392000002000900248084400900098006808BDFC
:10393000142C01400FB410B504460021DDE9030248
:103940001043059A1043069A1043079A1043089AA9
:1039500010430143606847F6FF629043084360608C
:10396000002010BC5DF814FB014603200860002015
:1039700070470146D1F88000704710B50246002319
:1039800008689060D1E901042043CC6820430C69A9
:1039900020430343D0686FF30B001843D06000202E
:1039A00010BD02460868C2F880000020704730B59C
:1039B000014600204FF480320C68646BC4F3C013DE
:1039C00004E00C68646BC4F3C013521E0AB1002BF0
:1039D000F7D00AB9032030BD40F2FF540D68AC6344
:1039E00000BFF8E72DE9F04105460E46002700BF6D
:1039F0002868406B00F045000028F9D02868406B2B
:103A000000F0040030B10327042029688863384699
:103A1000BDE8F0812868406B00F0010028B1012763
:103A20000120296888633846F2E72868FFF76DFFB0
:103A3000B04202D010273846EAE740F2FF5029682A
:103A400088630020FFF76AFF04464548204008B914
:103A50003846DDE704F00040B0F1004F01D11C20F2
:103A6000D6E704F08040B0F1804F01D10920CFE7C4
:103A700004F00050B0F1005F01D10A20C8E704F063
:103A80008050B0F1805F01D10B20C1E704F00060ED
:103A9000B0F1006F01D10C20BAE704F08060B0F102
:103AA000806F01D10D20B3E704F08070B0F1807F0A
:103AB00001D10E20ACE704F40000B0F5000F01D1F5
:103AC0000F20A5E704F48000B0F5800F01D110208D
:103AD0009EE704F40010B0F5001F01D1112097E714
:103AE00004F48010B0F5801F01D1122090E704F497
:103AF0000020B0F5002F01D1132089E704F48020C5
:103B0000B0F5802F01D1142082E704F40030B0F525
:103B1000003F01D115207BE704F48030B0F5803FF1
:103B200001D1162074E704F40040B0F5004F01D134
:103B300017206DE704F48040B0F5804F01D11820C4
:103B400066E704F40050B0F5005F01D119205FE78B
:103B500004F00800082801D11A2059E7384657E731
:103B600008E0FFFD0146002000BF0A68526B02F02A
:103B70004502002AF9D00A68526B02F0040222B111
:103B8000032004220B689A6370470A68526B02F0A4
:103B9000010222B1012001220B689A63F4E740F28E
:103BA000FF520B689A6300BFEEE70146002000BF9A
:103BB0000A68526B02F04502002AF9D00A68526B7B
:103BC00002F0040222B1032004220B689A637047BA
:103BD00040F2FF520B689A6300BFF8E72DE9F0410D
:103BE00004460E4617464FF0000800BF2068406BA1
:103BF00000F045000028F9D02068406B00F0040078
:103C000038B14FF003080420216888634046BDE8BE
:103C1000F0812068406B00F0010030B14FF00108E6
:103C20000120216888634046F1E72068FFF76DFEB8
:103C3000B04203D04FF010084046E8E740F2FF5092
:103C4000216888630020FFF769FE054605F460409F
:103C500018B9280C38804046D9E705F40050B0F573
:103C6000005F01D11320D2E705F48040B0F5804F0A
:103C700001D11020CBE705F40040B0F5004F01D191
:103C80000F20C4E74046C2E730B5014629204FF473
:103C900080320C68646B04F045040CB1012400E030
:103CA0000024234609E00C68646B04F045040CB161
:103CB000012400E000242346521E0BB9002AF2D151
:103CC0000C68646BC4F3800302B123B103200424A5
:103CD0000D68AC6330BD0C68646B04F0400424B123
:103CE000002040240D68AC63F4E700BFF2E7F0B5B4
:103CF0008DB004460E46002500270020009001905C
:103D0000082008901020099040200A9000200B9075
:103D10004FF480600C9008A92068FFF72EFE102158
:103D20002046FFF75FFE054615B128460DB0F0BDF1
:103D3000A08C000408903720099008A92068FFF79C
:103D40001CFE37212046FFF74DFE05460DB12846E3
:103D5000ECE74FF0FF3002900820039030200490F1
:103D600002200590002006900120079002A92068FB
:103D7000FFF7B5FD002008903320099008A92068BE
:103D8000FFF7FBFD33212046FFF72CFE05460DB162
:103D90002846CBE70AE02068406B00F4001028B109
:103DA0002068FFF7E6FD4DF827007F1C2068406B78
:103DB00040F22A6108400028EDD02068406B00F0F6
:103DC000080028B108202168886304252846ADE74B
:103DD0002068406B00F0020028B10220216888634F
:103DE00002252846A2E72068406B00F0200028B199
:103DF0002020216888630625284697E72068406BC5
:103E000000F4007030B14FF400702168886307251A
:103E100028468BE740F2FF5021688863009800062F
:103E2000009901F47F4140EA0120009901F47F01EB
:103E300040EA1120009940EA116070600198000684
:103E4000019901F47F4140EA0120019901F47F01C9
:103E500040EA1120019940EA11603060284665E788
:103E600010B50F480F4908600020486000210D4838
:103E70008160C1600161416181610B49FEF723FDF1
:103E800004460CB1012010BD4FF400610548FEF757
:103E9000DCFE04460CB10220F5E70020F3E7000049
:103EA000002C0140B00C0020100D002030B587B070
:103EB00004460025012001902068FFF72AFD18B96B
:103EC0002525284607B030BD206A042825D00020CB
:103ED000029002200390C0200490002005904FF42F
:103EE0008060069002A92068FFF747FD2046FFF793
:103EF00039FE05460DB12846E4E70020FFF70EFD28
:103F0000A0630420FFF70AFDE0630820FFF706FD29
:103F100020640C20FFF702FD6064206A40B1206A33
:103F2000012805D0206A062802D0206A022810D174
:103F3000032003904020049002A92068FFF71DFD94
:103F400001AA03212046FFF749FE05460DB1284688
:103F5000B8E7206A042824D0BDF804006062A08C71
:103F60000004029009200390C020049002A9206858
:103F7000FFF703FD2046FFF7F5FD05460DB1284686
:103F8000A0E70020FFF7CAFCA0620420FFF7C6FCF0
:103F9000E0620820FFF7C2FC20630C20FFF7BEFCA4
:103FA000606328468EE7000070B586B004460D4673
:103FB000002600200090A08C000401900D200290AB
:103FC00040200390002004904FF48060059001A9E8
:103FD0002068FFF7D2FC00BF2068406B00F045006E
:103FE0000028F9D02068406B00F0040030B10326AF
:103FF000042021688863304606B070BD2068406B9D
:1040000000F0010028B101260120216888633046B4
:10401000F2E72068FFF779FC0D2802D01026304621
:10402000EAE740F2FF50216888630020FFF776FC42
:1040300000900098C0F3432028704F490098084032
:1040400008B93046D8E7009800F00040B0F1004FC2
:1040500001D11C20D0E7009800F08040B0F1804FE3
:1040600001D10920C8E7009800F00050B0F1005FCE
:1040700001D10A20C0E7009800F08050B0F1805FC5
:1040800001D10B20B8E7009800F00060B0F1006F9C
:1040900001D10C20B0E7009800F08060B0F1806F93
:1040A00001D10D20A8E7009800F08070B0F1807F6A
:1040B00001D10E20A0E7009800F40000B0F5000F39
:1040C00001D10F2098E7009800F48000B0F5800F30
:1040D00001D1102090E7009800F40010B0F5001F07
:1040E00001D1112088E7009800F48010B0F5801FFE
:1040F00001D1122080E7009800F40020B0F5002FD5
:1041000001D1132078E7009800F48020B0F5802FCB
:1041100001D1142070E7009800F40030B0F5003FA2
:1041200001D1152068E7009800F48030B0F5803F99
:1041300001D1162060E7009800F40040B0F5004F70
:1041400001D1172058E7009800F48040B0F5804F67
:1041500001D1182050E7009800F40050B0F5005F3E
:1041600001D1192048E7009800F00800082801D183
:104170001A2041E730463FE708E0FFFD2DE9F04116
:1041800086B00446002000900026002500278046C7
:10419000514908602068FFF7E7FB0120FDF778FC34
:1041A00001204D49A039C1F8A000002001900290E3
:1041B000039004904FF48060059001A92068FFF7F8
:1041C000DCFB2046FFF7F3FB00909DF8000020B1D8
:1041D0009DF8000006B0BDE8F0814FF4D570019065
:1041E000082002904020039001A92068FFF7C5FB3A
:1041F0002046FFF749FD00909DF8000018B9012006
:1042000020624FF08048002001903720029001A9E1
:104210002068FFF7B2FB37212046FFF7E3FB009051
:104220009DF80000002854D13EE000200190372086
:10423000029040200390002004904FF4806005908D
:1042400001A92068FFF799FB37212046FFF7CAFB39
:1042500000909DF8000010B19DF80000BAE71F48DB
:1042600048EA00000190292002904020039000209D
:1042700004904FF48060059001A92068FFF77DFB52
:104280002046FFF792FC00909DF8000010B19DF8C9
:1042900000009FE70020FFF741FB0646012080EA6F
:1042A000D67080F001076D1C1FB94FF6FF70854274
:1042B000BBD34FF6FF70854204D31B2000909DF8BE
:1042C000000087E706F08040B0F1804F01D1022066
:1042D00020629DF800007DE7A0802542000010804C
:1042E0002DE9FE4F81460C469346002002900026A1
:1042F00025462C46700240EAD5566D02FBF74FFF6B
:1043000009F0030000B34FF0000A1AE00120410257
:10431000CDE900104FEA4A20471946EBE0733A46D0
:1043200011491248FEF77EFB02904FF400720E49CD
:104330004846FBF77EFF09F500790AF1010000F01D
:10434000FF0ADA45E2D30AE04FF400702A4633460A
:104350004946CDE9000B0548FEF764FB0290FBF7E8
:1043600020FF0298BDE8FE8F180E0020B00C002040
:10437000F0B585B0064614461D4600270094072078
:10438000019040200290002003904FF48060049040
:1043900069463068FFF7F1FA07213046FFF722FB44
:1043A0000746384605B0F0BD30B587B00446002555
:1043B000002000900190FFF7B1FA00F00070B0F11A
:1043C000007F03D10E25284607B030BD6946204640
:1043D000FFF78DFC05460DB12846F5E7019800F47E
:1043E000803048B3A08C0004029037200390402016
:1043F0000490002005904FF48060069002A9206888
:10440000FFF7BBFA37212046FFF7ECFA05460DB15E
:104410002846D9E7002002900620039002A92068D0
:10442000FFF7ABFA06212046FFF7DCFA05460DB18F
:104430002846C9E72846C7E725252846C4E730B5FA
:1044400087B004460025002000900190FFF766FA2F
:1044500000F00070B0F1007F03D10E25284607B0B0
:1044600030BD69462046FFF742FC05460DB128469F
:10447000F5E7019800F4802048B3A08C0004029076
:104480003720039040200490002005904FF4806076
:10449000069002A92068FFF770FA37212046FFF73F
:1044A000A1FA05460DB12846D9E702200290062060
:1044B000039002A92068FFF760FA06212046FFF763
:1044C00091FA05460DB12846C9E72846C7E72525D4
:1044D0002846C4E72DE9FE4F81460C46934600204E
:1044E0000290002625462C46700240EAD5566D0201
:1044F000FBF755FE09F0030000B34FF0000A1AE085
:104500004FF4007249461548FBF793FE0120410223
:10451000CDE900104FEA4A20471946EBE0733A46CE
:104520000E490F48FEF7D0FB029009F500790AF119
:10453000010000F0FF0ADA45E2DB0AE04FF4007008
:104540002A4633464946CDE9000B0548FEF7BCFB39
:104550000290FBF726FE0298BDE8FE8F180E0020A1
:10456000B00C0020704700007CB50E484FF47A7301
:10457000002406C8A1FB030502FB035201FB042330
:104580004FF08041496A22460446611843EB02001D
:10459000CDE900100448037804A20D490DA002F0F3
:1045A000DFFC7CBD1800002079000020535F434FE2
:1045B0004E54494E55455F464C41475F49440909B1
:1045C00025642074696D653A2564200D0A00000099
:1045D000A0D60120665F746573742E747874000031
:1045E00030B52DED048B87B0194890ED010A10EE1F
:1045F000101A0846FBF76CFE41EC180B144890EDBE
:10460000000A10EE101A0846FBF762FE41EC190B87
:1046100010484FF47A740CC80020A2FB041503FB69
:10462000045302FB0033E006406A0C46201843F1B5
:104630000001CDE904018DED028B8DED009B06A2FA
:104640000E490FA002F08CFC07B0BDEC048B30BD0E
:10465000A800002018000020535F4C454E475448E6
:104660005F585F4944090925660925660920746970
:104670006D653A2564200D0A00000000A0D60120D7
:10468000665F746573742E74787400007FB510488B
:104690004FF47A73002406C8A1FB030502FB035202
:1046A00001FB04234FF08041496A22460446611809
:1046B00043EB0200CDE90210064890ED000B8DEDB2
:1046C000000B05A20B490CA002F04AFC7FBD0000C4
:1046D00018000020B0000020535F4C454E4754485E
:1046E0005F595F4944090925662074696D653A255B
:1046F000640D0A00A0D60120665F746573742E7481
:10470000787400007CB50E484FF47A73002406C814
:10471000A1FB030502FB035201FB04234FF0804180
:10472000496A22460446611843EB0200CDE90010B5
:104730000448037804A20C490CA002F011FC7CBDD3
:10474000180000207A000020535F504153535F4609
:104750004C41475F4944090925642074696D653AF5
:104760002564200D0A000000A0D60120665F746554
:1047700073742E74787400002DE9F04192B00446F1
:10478000884615461E46002700BF0020009023489B
:10479000006840F08050214908600846006800F039
:1047A0008050009000BF00BF00BF002000901C4858
:1047B000006840F480401A4908600846006800F428
:1047C0008040009000BF00BF0120069007900220AB
:1047D0000C9041050D91CDF838800F9410951196ED
:1047E00006A8FDF7F5FC07460FB100BFFEE70F2056
:1047F000019002200290002003904FF4A0500490FA
:104800004FF480500590052101A8FDF713FB0746E2
:104810000FB100BFFEE712B0BDE8F08140380240A2
:104820000070004010B5FDF76DFA10BD70B50020A6
:104830000022022300240221274D2D6805F00C00E0
:1048400020B1042806D0082834D107E0234D244E97
:10485000356033E0234D224E35602FE01E4D2D1F75
:104860002D68C5F380541C4D2D1F2D6805F03F01A8
:1048700054B11C4DB5FBF1F5174E361F3668C6F323
:10488000881605FB06F209E0144DB5FBF1F5124E52
:10489000361F3668C6F3881605FB06F20E4D2D1F2F
:1048A0002D68C5F301456D1C6B00B2FBF3F50C4E92
:1048B000356003E0094D0A4E356000BF00BF064D6C
:1048C0002D68C5F30315084E705D054D2D68C54074
:1048D000034E356070BD0000083802400024F4002B
:1048E0000000002000127A00040000201448006834
:1048F00040F47000124908601248006840F001005E
:104900001049086000200F49083108600D48006810
:104910000D4908400B4908600C48091D0860081F34
:10492000006820F48020091F0860002005490C3130
:1049300008604FF00060024980390860704700004D
:1049400088ED00E000380240FFFFF6FE1030002442
:1049500010B50248FEF77AFB10BD0000700B002076
:1049600070B505460C464FF0804007490860084680
:10497000446000218160C5600161FEF71AFB0248B6
:10498000FEF754FB70BD0000700B0020002202688F
:104990002C4B98420ED0B0F1804F0BD02A4B98424E
:1049A00008D02A4B984205D0294B984202D0294B77
:1049B000984201D1012300E000231BB122F07002D4
:1049C0004B681A431F4B984220D0B0F1804F1DD046
:1049D0001D4B98421AD01D4B984217D01C4B984241
:1049E00014D01C4B984211D01B4B98420ED01B4B3D
:1049F00098420BD01A4B984208D01A4B984205D0D7
:104A0000194B984202D0194B984201D1012300E082
:104A100000231BB122F44072CB681A4302608B68FA
:104A2000C3620B688362074B984202D0094B9842DD
:104A300001D1012300E000230BB10B6903630123C3
:104A4000436170470000014000040040000800403E
:104A5000000C0040000401400040014000440140BF
:104A60000048014000180040001C004000200040A9
:104A700008B50A4800680068C0F3401068B14FF4F8
:104A80007A73012269460548FEF7C1FB4FF47A7339
:104A900001226946014800F003F808BDF00A002031
:104AA0002DE9F04104460D4616461F463B46324668
:104AB00029462046FEF727FC00BF20680068C0F3A7
:104AC00080100028F9D0BDE8F0812DE9F0410446BE
:104AD0000E4617461D464FF00008FDF70DF98046BB
:104AE0009FBB2BE0681C48B32DB1FDF705F9A0EB87
:104AF0000800A84222D92068C06820F08000216800
:104B0000C8602068C06820F020002168C860206864
:104B1000C06820F480702168C8602068406920F077
:104B2000010021684861012084F8390000BF00209D
:104B300084F8380000BF0320BDE8F08120680068D9
:104B40003040B04202D1012001E003E00020002803
:104B5000C8D035E02AE0681C40B32DB1FDF7CCF891
:104B6000A0EB0800A84221D92068C06820F080008E
:104B70002168C8602068C06820F020002168C860F3
:104B80002068C06820F480702168C860206840698F
:104B900020F0010021684861012084F8390000BF3D
:104BA000002084F8380000BF0320C5E720680068B3
:104BB0003040B04201D1012000E000200028CAD1DD
:104BC0000020B9E708B50A4800680068C0F3401043
:104BD00068B14FF47A73012269460548FEF717FB66
:104BE0004FF47A73012269460148FFF759FF08BD67
:104BF000700A002008B50A4800680068C0F3401039
:104C000068B14FF47A73012269460548FEF7FFFA4E
:104C10004FF47A73012269460148FFF741FF08BD4E
:104C2000B00A002008B50A4800680068C0F34010C8
:104C300068B14FF47A73012269460548FEF7E7FA36
:104C40004FF47A73012269460148FFF729FF08BD36
:104C5000300B002000BFFEE710B52A2302A207494F
:104C600007A002F07DF910BD575F4252414B455FEE
:104C70004944090925640D0A00000000A0D601205E
:104C8000665F746573742E74787400007CB5144884
:104C9000007838B900204FF0804148620021114A65
:104CA000116051600F484FF47A73002406C8A1FBCD
:104CB000030502FB035201FB04234FF08041496AC4
:104CC00022460446611843EB0200CDE90010044877
:104CD000037805A20D490EA002F042F97CBD000048
:104CE0007800002018000020575F47414D455F5075
:104CF000524F434553535F49440909256420746961
:104D00006D653A2564200D0A00000000A0D6012040
:104D1000665F746573742E747874000010B504486F
:104D2000037804A2074908A002F01AF910BD000098
:104D30007D000020575F48414E444C4509092564D9
:104D40000D0A0000A0D60120665F746573742E748E
:104D50007874000010B50448037804A2084909A03B
:104D600002F0FEF810BD00007B000020575F494FA5
:104D70005F544553545F494409092564090D0A00ED
:104D8000A0D60120665F746573742E747874000079
:104D90007CB50E484FF47A73002406C8A1FB0305C6
:104DA00002FB035201FB04234FF08041496A224673
:104DB0000446611843EB0200CDE900100448037873
:104DC00004A20C490CA002F0CBF87CBD1800002016
:104DD000A0000020575F4C454E4754485F585F493C
:104DE00044090925642074696D653A2564200D0A1B
:104DF00000000000A0D60120665F746573742E74F5
:104E0000787400007CB50E484FF47A73002406C80D
:104E1000A1FB030502FB035201FB04234FF0804179
:104E2000496A22460446611843EB0200CDE90010AE
:104E30000448037804A20C490CA002F091F87CBD50
:104E400018000020A1000020575F4C454E475448F1
:104E50005F595F494409092564092074696D653A01
:104E60002564200D0A000000A0D60120665F74654D
:104E700073742E747874000010B50448037804A28B
:104E800009490AA002F06CF810BD00007C00002067
:104E9000575F4D4F544F525F544553545F49440937
:104EA000092564090D0A0000A0D60120665F74651B
:104EB00073742E747874000010B5044804A20A4973
:104EC00003680AA002F04CF810BD00009800002012
:104ED000575F5345545F434F5645525F4944090954
:104EE00025640D0A00000000A0D60120665F7465ED
:104EF00073742E747874000010B50448038804A2FB
:104F000009490AA002F02CF810BD00008000002022
:104F1000575F5345545F4553434F4E5F494409091A
:104F200025640D0A00000000A0D60120665F7465AC
:104F300073742E747874000008B5054840680090BA
:104F4000034804A20C4903680CA002F009F808BD4C
:104F500088000020575F5345545F475241425F49E4
:104F600044090964617461303A25640964617461BB
:104F7000313A25640D0A0000A0D60120665F7465F1
:104F800073742E747874000070B504464D4830F880
:104F900014004D49097888420ADB4A4830F8140069
:104FA00000EB8000494911F82000012800D070BDB5
:104FB000444830F8140000EB8000444901EB8000C5
:104FC000007C012838D13F4830F8140000EB800005
:104FD00001EB800040883E490860002048608860FE
:104FE000C860384830F8140000EB8000374901EB06
:104FF0008000007A3649086100250EE0314830F81B
:10500000140000EB8000314901EB80004068415DF5
:105010002F4814304155681CC5B22A4830F8140096
:1050200000EB8000294901EB8000007AA842E5DC12
:105030002848FCF75BF842E0224830F8140000EB07
:105040008000224901EB8000007C022837D11D48F6
:1050500030F8140000EB800001EB800040881E490E
:105060000860002048608860C860164830F8140066
:1050700000EB8000154901EB8000007A16490861B9
:1050800000250EE00F4830F8140000EB80000F49B7
:1050900001EB80004068415D0F4814304155681CA9
:1050A000C5B2084830F8140000EB8000074901EB56
:1050B0008000007AA842E5DC0848FCF717F800BF3A
:1050C00075E700007402002068000020BC0000208A
:1050D000EC0B0020AC0B00206C0C00202C0C0020F2
:1050E0000FB4084B10B504A902AA039800F0F0F819
:1050F000044602A9002000F082FC204610BC5DF8A6
:1051000014FB0000FF59000837B514460846064B4B
:105110006A46214600F0DCF804466946002000F0AB
:105120006EFC20463EBD0000FF59000802E008C8A2
:10513000121F08C1002AFAD170477047002001E011
:1051400001C1121F002AFBD1704700002DE9FF5F4B
:1051500082B00021DDE90430020DDDF840B00343E8
:1051600018D044F61050A2F2FF32424315141198A1
:1051700001281FD0A5EB0B00401C5FEA000A4FF08E
:1051800000064E4FDFF83891B046504615D5CAF1AB
:10519000000413E0119801244AA3012801D16FEA09
:1051A0000B010298119AC0E90031C0E9024206B031
:1051B000BDE8F09FCBF10000DFE704460021404A44
:1051C000491842EB0450CDE9001012E0E00707D087
:1051D00032463B4640464946FBF7A0F980468946A1
:1051E00032463B4610461946FBF798F906460F46ED
:1051F0006410002CEAD1DDE90401DDE90023BAF1F5
:10520000000F06DAFBF78AF942464B46FBF786F9B0
:1052100005E0FBF7F5F942464B46FBF7F1F904468A
:105220000E460022284BFBF773FA03D84FF0FF30ED
:10523000014607E00022254B20463146FBF7C7F820
:10524000FBF74DFA102409E0002C0ADB0A220023A8
:10525000FAF7BEFF039B30321A55641E50EA010272
:10526000F2D1641C039AC4F111031444119A012A67
:1052700003D0012208430DD10AE0084304D00020E6
:105280004FF0110B119072E7A3EB0B056D1E0DE0B3
:105290005B4504DD4FF0000205F1010504E003DA8F
:1052A0004FF00002A5F10105002AECD002981199F7
:1052B000C0E90231C0E9004579E700000000144070
:1052C0000000F03F300000000000F0430000E03F2D
:1052D0002DE9FF4F95B09B468946064600250FE213
:1052E000252877D100242746F84A0121059400E0BB
:1052F000044316F8013F203B01FA03F01042F7D1B6
:1053000030782A2811D06FF02F033078A0F13002C6
:10531000092A16D8059A44F0020402EB820203EB34
:1053200042021044761C0590EFE759F8042B0592D1
:10533000002A03DA504244F40054059044F0020479
:10534000761C30782E2816D116F8010F44F004048C
:105350002A280DD06FF02F023078A0F13003092BEE
:1053600009D807EB870302EB4303C718761CF3E762
:1053700059F8047B761C30786C280FD006DC4C285A
:1053800017D068280DD06A2814D104E0742810D0F2
:105390007A280FD10DE044F400140AE044F480149C
:1053A00001E044F440147278824202D104F5801482
:1053B000761C761C307866280BD013DC582877D002
:1053C00009DC002875D04528F6D04628F4D04728B7
:1053D0001AD19DE118E0632835D0642879D065287A
:1053E00012D195E1702873D008DC6728F1D06928C4
:1053F0006FD06E280DD06F2806D1B5E073282CD061
:10540000752875D0782874D05A46179990476D1C26
:1054100075E1C4F30250022809D003280DD0D9F851
:10542000001004280DD00D6009F1040967E1D9F8D6
:105430000010EA17C1E90052F6E7D9F800100D8014
:10544000F2E70D70F0E719F8041B8DF8001000204A
:105450008DF80100EA46012003E059F804AB4FF053
:10546000FF3061074FF0000102D40DE008F10101A7
:105470008846B9420FDA8045F8DB1AF8081000298F
:10548000F4D108E008F1010188468142FADB1AF8FC
:1054900008100029F6D105985B46A0EB08072146C5
:1054A0003846179A00F094FA284400EB080507E004
:1054B0004DE029E10DE01AF8010B5A461799904783
:1054C000B8F10108F7D25B4621463846179A13E136
:1054D00042E00A220092C4F302524FF0000A022A6C
:1054E00008D059F804CB032A4FEAEC710AD00DE03A
:1054F00029E02AE009F1070121F00702F2E802C1E0
:10550000914609E00FFA8CFC4FEAEC71042A03D1B2
:105510004FFA8CFC4FEAEC71002907DA0A460021A9
:10552000DCF1000C61EB02012D2202E0220504D522
:105530002B228DF80420012203E0E20701D0202273
:10554000F7E7904659E00A2102E010220DE0102111
:105550004FF0000A00910BE010224FF0000A44F0D7
:1055600004040827009203E008224FF0000A00928A
:10557000C4F30252022A05D059F804CB0021032AB1
:1055800008D009E009F1070121F00702F2E802C1A1
:10559000914605E01FFA8CFC042A01D10CF0FF0CA7
:1055A0004FF00008220728D5702806D0009B83F012
:1055B000100353EA0A0305D00EE040228DF80420C0
:1055C000012208E05CEA010206D030228DF80420B6
:1055D0008DF8050002229046009B83F0080353EAF1
:1055E0000A030AD15CEA010201D1620705D5302223
:1055F0008DF804204FF001087F1E582804D034A0F5
:1056000003900EA802900DE036A0F9E753466046DD
:10561000009AFAF7DDFD84460398825C0298401EEA
:10562000029002705CEA0100F0D1029806A9081A03
:1056300000F1200A600702D524F4803400E001273D
:10564000574502DDA7EB0A0000E0002000EB0A014D
:10565000009005984144401A0590E00306D45B464B
:105660002146179A059800F0B3F90544002706E093
:1056700001A85A46C05D179990476D1C7F1C47458D
:10568000F6DBE0030CD55B462146179A059800F03F
:105690009FF9054404E030205A46179990476D1C45
:1056A0000099481E00900029F5DC08E00298029954
:1056B0005A460078491C0291179990476D1CBAF11F
:1056C0000001AAF1010AF1DC65E1000009280100EE
:1056D0003031323334353637383961626364656668
:1056E000000000003031323334353637383941422A
:1056F000434445460000000000F058F90544761C7C
:10570000307800287FF4ECAD19B02846BDE8F08F62
:10571000620700D4062709F1070222F0070CFCE813
:105720000223E14603F000485FEA080C02D00FF2C2
:10573000702C0DE05FEA045C02D50FF2682C07E0E4
:105740005FEAC47C02D00FF2602C01E0AFF2700C73
:105750004FF0FF3823F00043CDF850C065280CD03F
:1057600006DC452809D046281DD047283DD13DE01C
:10577000662818D067287ED138E00021112F01DB80
:10578000112000E0781CCDE9000106A90EA8FFF762
:10579000DDFCDDE90F010E9A03910021009207F173
:1057A000010A04914DE04FF000400097CDE901104F
:1057B00006A90EA8FFF7CAFCDDE90F0203920E9BB3
:1057C00011990022DDF80CA00093049211B9791C04
:1057D00000EB010AB7EB0A0004D4C0F1FF3007F177
:1057E000010A0490AAEB0700019044E0012F00DABF
:1057F00001270021112F01DD112000E03846CDE9FD
:10580000000106A90EA8FFF7A1FCDDE90F010E9A21
:105810000391002104910092BA4621070CD4039908
:10582000514500DA8A46BAF1010F05DD009AAAF166
:105830000101515C302908D0B84202DA10F1040F9E
:1058400006DA0121CDE9011015E0AAF10101E9E72D
:10585000002805DC049901440491AAEB000102E050
:10586000411C514500DD8A460499401A401C0190B4
:105870004FF000400290200704D40198504501DB0E
:10588000CDF8048000208DF84F0002980DF14F07ED
:10589000B0F1004F25D02B200E9002984FF0020857
:1058A00000280CDA404202902D200E9007E00A21D9
:1058B0000298FAF720FD3031029007F8011DB8F187
:1058C0000001A8F10108F2DC02980028EFD1791E4E
:1058D0000E980870307800F0200040F0450007F87E
:1058E000020D12A8C01B00F107081498007800B13F
:1058F000012000EB0A01019801EBE0710598414499
:10590000401A401E0590E00306D45B462146179AD4
:10591000059800F05DF805441498007818B15A46CF
:10592000179990476D1CE00324D55B462146179AD2
:10593000059800F04DF805441CE00498002807DBAA
:10594000DDE90301884203DD0098405C179901E01E
:10595000179930205A469047049805F10105401CDC
:1059600004900198401E019004D12E205A461799A8
:1059700090476D1CBAF10001AAF1010ADDDC05E0D7
:1059800017F8010B5A46179990476D1CB8F10001A2
:10599000A8F10108F4DC5B462146179A0598ABE6AE
:1059A0002D0000002B000000200000002DE9F04138
:1059B000044600251E461746880404D405E03946EF
:1059C0002020B0476D1C641EF9D52846BDE8F08143
:1059D0002DE9F041044600251E469046C80301D536
:1059E000302700E02027880404D505E041463846EA
:1059F000B0476D1C641EF9D52846BDE8F0810A68E1
:105A0000531C0B6010707047D0ED000AF4EEC00A12
:105A1000F1EE10FA01DD80ED000AD0ED000AB1EEE2
:105A2000401AF4EEC10AF1EE10FA03D2F1EE400A88
:105A3000C0ED000A7047000070B504460D46002016
:105A40002071401E20632946204602F021FA08B149
:105A5000032070BD94F8321294F8330241EA00201A
:105A60004AF65521884201D00220F2E794F86D00F1
:105A7000010694F86C0041EA004194F86B0041EA99
:105A8000002094F86A10084320F07F400D498842B6
:105A900001D10020DDE794F88900010694F8880020
:105AA00041EA004194F8870041EA002094F886100A
:105AB000084320F07F400349884201D10020C8E715
:105AC0000120C6E746415400024600E0521C10780F
:105AD00010B110788842F9D11078704770B503463C
